{
  "_format": "hh-sol-artifact-1",
  "contractName": "CertificateManagement",
  "sourceName": "contracts/CertificateManagement.sol",
  "abi": [
    {
      "inputs": [],
      "stateMutability": "nonpayable",
      "type": "constructor"
    },
    {
      "anonymous": false,
      "inputs": [
        {
          "indexed": true,
          "internalType": "uint256",
          "name": "certificateID",
          "type": "uint256"
        },
        {
          "indexed": false,
          "internalType": "string",
          "name": "studentName",
          "type": "string"
        },
        {
          "indexed": false,
          "internalType": "string",
          "name": "issuer",
          "type": "string"
        }
      ],
      "name": "CertificateIssued",
      "type": "event"
    },
    {
      "anonymous": false,
      "inputs": [
        {
          "indexed": true,
          "internalType": "uint256",
          "name": "certificateID",
          "type": "uint256"
        }
      ],
      "name": "CertificateRevoked",
      "type": "event"
    },
    {
      "inputs": [
        {
          "internalType": "address",
          "name": "issuer",
          "type": "address"
        }
      ],
      "name": "addIssuer",
      "outputs": [],
      "stateMutability": "nonpayable",
      "type": "function"
    },
    {
      "inputs": [
        {
          "internalType": "address",
          "name": "",
          "type": "address"
        }
      ],
      "name": "authorizedIssuers",
      "outputs": [
        {
          "internalType": "bool",
          "name": "",
          "type": "bool"
        }
      ],
      "stateMutability": "view",
      "type": "function"
    },
    {
      "inputs": [
        {
          "internalType": "uint256",
          "name": "",
          "type": "uint256"
        }
      ],
      "name": "certificates",
      "outputs": [
        {
          "internalType": "uint256",
          "name": "id",
          "type": "uint256"
        },
        {
          "internalType": "string",
          "name": "studentName",
          "type": "string"
        },
        {
          "internalType": "string",
          "name": "course",
          "type": "string"
        },
        {
          "internalType": "uint256",
          "name": "issueDate",
          "type": "uint256"
        },
        {
          "internalType": "bool",
          "name": "isValid",
          "type": "bool"
        },
        {
          "internalType": "string",
          "name": "issuer",
          "type": "string"
        }
      ],
      "stateMutability": "view",
      "type": "function"
    },
    {
      "inputs": [
        {
          "internalType": "string",
          "name": "studentName",
          "type": "string"
        },
        {
          "internalType": "string",
          "name": "course",
          "type": "string"
        },
        {
          "internalType": "string",
          "name": "issuer",
          "type": "string"
        }
      ],
      "name": "issueCertificate",
      "outputs": [
        {
          "internalType": "uint256",
          "name": "",
          "type": "uint256"
        }
      ],
      "stateMutability": "nonpayable",
      "type": "function"
    },
    {
      "inputs": [
        {
          "internalType": "address",
          "name": "issuer",
          "type": "address"
        }
      ],
      "name": "removeIssuer",
      "outputs": [],
      "stateMutability": "nonpayable",
      "type": "function"
    },
    {
      "inputs": [
        {
          "internalType": "uint256",
          "name": "certificateID",
          "type": "uint256"
        }
      ],
      "name": "revokeCertificate",
      "outputs": [],
      "stateMutability": "nonpayable",
      "type": "function"
    },
    {
      "inputs": [
        {
          "internalType": "uint256",
          "name": "certificateID",
          "type": "uint256"
        }
      ],
      "name": "verifyCertificate",
      "outputs": [
        {
          "internalType": "bool",
          "name": "",
          "type": "bool"
        }
      ],
      "stateMutability": "view",
      "type": "function"
    }
  ],
  "bytecode": "0x608060405234801561001057600080fd5b5060018060003373ffffffffffffffffffffffffffffffffffffffff1673ffffffffffffffffffffffffffffffffffffffff16815260200190815260200160002060006101000a81548160ff021916908315150217905550610fc7806100776000396000f3fe608060405234801561001057600080fd5b506004361061007d5760003560e01c806347bc70931161005b57806347bc7093146100ea578063663b3e2214610106578063beec1caa1461013b578063f731fa0f1461016b5761007d565b806306f5497e146100825780631692a9421461009e57806320694db0146100ce575b600080fd5b61009c60048036038101906100979190610aad565b61019b565b005b6100b860048036038101906100b39190610aad565b6102e7565b6040516100c59190610c52565b60405180910390f35b6100e860048036038101906100e391906109ed565b610313565b005b61010460048036038101906100ff91906109ed565b6103f9565b005b610120600480360381019061011b9190610aad565b6104e0565b60405161013296959493929190610cff565b60405180910390f35b61015560048036038101906101509190610a16565b6106c1565b6040516101629190610ce4565b60405180910390f35b610185600480360381019061018091906109ed565b610898565b6040516101929190610c52565b60405180910390f35b600160003373ffffffffffffffffffffffffffffffffffffffff1673ffffffffffffffffffffffffffffffffffffffff16815260200190815260200160002060009054906101000a900460ff16610227576040517f08c379a000000000000000000000000000000000000000000000000000000000815260040161021e90610ca4565b60405180910390fd5b60008082815260200190815260200160002060040160009054906101000a900460ff16610289576040517f08c379a000000000000000000000000000000000000000000000000000000000815260040161028090610cc4565b60405180910390fd5b600080600083815260200190815260200160002060040160006101000a81548160ff021916908315150217905550807fefa6c5f47ac2523bb4db18032377bf7fdce0fa9d86eddcae1ca9bba38be615d760405160405180910390a250565b600080600083815260200190815260200160002060040160009054906101000a900460ff169050919050565b600160003373ffffffffffffffffffffffffffffffffffffffff1673ffffffffffffffffffffffffffffffffffffffff16815260200190815260200160002060009054906101000a900460ff1661039f576040517f08c379a000000000000000000000000000000000000000000000000000000000815260040161039690610ca4565b60405180910390fd5b60018060008373ffffffffffffffffffffffffffffffffffffffff1673ffffffffffffffffffffffffffffffffffffffff16815260200190815260200160002060006101000a81548160ff02191690831515021790555050565b600160003373ffffffffffffffffffffffffffffffffffffffff1673ffffffffffffffffffffffffffffffffffffffff16815260200190815260200160002060009054906101000a900460ff16610485576040517f08c379a000000000000000000000000000000000000000000000000000000000815260040161047c90610ca4565b60405180910390fd5b6000600160008373ffffffffffffffffffffffffffffffffffffffff1673ffffffffffffffffffffffffffffffffffffffff16815260200190815260200160002060006101000a81548160ff02191690831515021790555050565b600060205280600052604060002060009150905080600001549080600101805461050990610e87565b80601f016020809104026020016040519081016040528092919081815260200182805461053590610e87565b80156105825780601f1061055757610100808354040283529160200191610582565b820191906000526020600020905b81548152906001019060200180831161056557829003601f168201915b50505050509080600201805461059790610e87565b80601f01602080910402602001604051908101604052809291908181526020018280546105c390610e87565b80156106105780601f106105e557610100808354040283529160200191610610565b820191906000526020600020905b8154815290600101906020018083116105f357829003601f168201915b5050505050908060030154908060040160009054906101000a900460ff169080600501805461063e90610e87565b80601f016020809104026020016040519081016040528092919081815260200182805461066a90610e87565b80156106b75780601f1061068c576101008083540402835291602001916106b7565b820191906000526020600020905b81548152906001019060200180831161069a57829003601f168201915b5050505050905086565b6000600160003373ffffffffffffffffffffffffffffffffffffffff1673ffffffffffffffffffffffffffffffffffffffff16815260200190815260200160002060009054906101000a900460ff1661074f576040517f08c379a000000000000000000000000000000000000000000000000000000000815260040161074690610ca4565b60405180910390fd5b6000423386866040516020016107689493929190610c0c565b6040516020818303038152906040528051906020012060001c90506040518060c00160405280828152602001868152602001858152602001428152602001600115158152602001848152506000808381526020019081526020016000206000820151816000015560208201518160010190805190602001906107eb9291906108b8565b5060408201518160020190805190602001906108089291906108b8565b506060820151816003015560808201518160040160006101000a81548160ff02191690831515021790555060a082015181600501908051906020019061084f9291906108b8565b50905050807f55e235e38225040825e04ea5d7545c53f47415b5543ec6bf898aa3a96742d5f98685604051610885929190610c6d565b60405180910390a2809150509392505050565b60016020528060005260406000206000915054906101000a900460ff1681565b8280546108c490610e87565b90600052602060002090601f0160209004810192826108e6576000855561092d565b82601f106108ff57805160ff191683800117855561092d565b8280016001018555821561092d579182015b8281111561092c578251825591602001919060010190610911565b5b50905061093a919061093e565b5090565b5b8082111561095757600081600090555060010161093f565b5090565b600061096e61096984610da6565b610d75565b90508281526020810184848401111561098657600080fd5b610991848285610e45565b509392505050565b6000813590506109a881610f63565b92915050565b600082601f8301126109bf57600080fd5b81356109cf84826020860161095b565b91505092915050565b6000813590506109e781610f7a565b92915050565b6000602082840312156109ff57600080fd5b6000610a0d84828501610999565b91505092915050565b600080600060608486031215610a2b57600080fd5b600084013567ffffffffffffffff811115610a4557600080fd5b610a51868287016109ae565b935050602084013567ffffffffffffffff811115610a6e57600080fd5b610a7a868287016109ae565b925050604084013567ffffffffffffffff811115610a9757600080fd5b610aa3868287016109ae565b9150509250925092565b600060208284031215610abf57600080fd5b6000610acd848285016109d8565b91505092915050565b610ae7610ae282610dfd565b610eb9565b82525050565b610af681610e0f565b82525050565b6000610b0782610dd6565b610b118185610de1565b9350610b21818560208601610e54565b610b2a81610f45565b840191505092915050565b6000610b4082610dd6565b610b4a8185610df2565b9350610b5a818560208601610e54565b80840191505092915050565b6000610b73601883610de1565b91507f43616c6c6572206973206e6f7420617574686f72697a656400000000000000006000830152602082019050919050565b6000610bb3601b83610de1565b91507f436572746966696361746520616c7265616479207265766f6b656400000000006000830152602082019050919050565b610bef81610e3b565b82525050565b610c06610c0182610e3b565b610edd565b82525050565b6000610c188287610bf5565b602082019150610c288286610ad6565b601482019150610c388285610b35565b9150610c448284610b35565b915081905095945050505050565b6000602082019050610c676000830184610aed565b92915050565b60006040820190508181036000830152610c878185610afc565b90508181036020830152610c9b8184610afc565b90509392505050565b60006020820190508181036000830152610cbd81610b66565b9050919050565b60006020820190508181036000830152610cdd81610ba6565b9050919050565b6000602082019050610cf96000830184610be6565b92915050565b600060c082019050610d146000830189610be6565b8181036020830152610d268188610afc565b90508181036040830152610d3a8187610afc565b9050610d496060830186610be6565b610d566080830185610aed565b81810360a0830152610d688184610afc565b9050979650505050505050565b6000604051905081810181811067ffffffffffffffff82111715610d9c57610d9b610f16565b5b8060405250919050565b600067ffffffffffffffff821115610dc157610dc0610f16565b5b601f19601f8301169050602081019050919050565b600081519050919050565b600082825260208201905092915050565b600081905092915050565b6000610e0882610e1b565b9050919050565b60008115159050919050565b600073ffffffffffffffffffffffffffffffffffffffff82169050919050565b6000819050919050565b82818337600083830152505050565b60005b83811015610e72578082015181840152602081019050610e57565b83811115610e81576000848401525b50505050565b60006002820490506001821680610e9f57607f821691505b60208210811415610eb357610eb2610ee7565b5b50919050565b6000610ec482610ecb565b9050919050565b6000610ed682610f56565b9050919050565b6000819050919050565b7f4e487b7100000000000000000000000000000000000000000000000000000000600052602260045260246000fd5b7f4e487b7100000000000000000000000000000000000000000000000000000000600052604160045260246000fd5b6000601f19601f8301169050919050565b60008160601b9050919050565b610f6c81610dfd565b8114610f7757600080fd5b50565b610f8381610e3b565b8114610f8e57600080fd5b5056fea26469706673582212206b5f0329f59af822c834af58773ead838073b5d43b65bcd8ad239981fec61e9764736f6c63430008000033",
  "linkReferences": {},
  "deployedLinkReferences": {}
}